:0400000044EF00F0D9
:10000800FACF01F0FBCF02F0E9CF03F0EACF04F01A
:10001800E1CF05F0E2CF06F0D9CF07F0DACF08F04C
:10002800F3CF09F0F4CF0AF0F6CF0BF0F7CF0CF0CE
:10003800F8CF0DF0F5CF0EF09EA001D001D003D07F
:100048008A7E9E9000D00EC0F5FF0DC0F8FF0CC050
:10005800F7FF0BC0F6FF0AC0F4FF09C0F3FF08C0A2
:10006800DAFF07C0D9FF06C0E2FF05C0E1FF04C000
:10007800EAFF03C0E9FF02C0FBFF01C0FAFF11005D
:1000880054EF00F04FEC00F0939E8A8EF28CF28EC3
:10009800FFD744EF00F0CD8ACD889D80CD80120037
:0600A800000146EF00F02C
:020000040020DA
:08000000FFFFFFFFFFFFFFFF00
:020000040030CA
:0E000000FF221F1EFF8885FF03C003E00340A0
:00000001FF
